:100000000C942A000C94FA040C942D050C946005B1
:100010000C943C000C943C000C943C000C943C0070
:100020000C943C000C943C000C943C000C943C0060
:100030000C943C000C943C000C943C000C943C0050
:100040000C943C000C943C000C943C000C943C0040
:100050000C943C0011241FBECFE5D8E0DEBFCDBF1D
:1000600010E0A0E6B0E001C01D92A636B107E1F7AE
:100070000E94A7060C94C9060C940000DF93CF934E
:10008000CDB7DEB7A6E2B0E0E6E2F0E080818068BE
:100090008C93A6E2B0E0E6E2F0E0808181608C9390
:1000A000A6E2B0E0E6E2F0E0808182608C93A6E216
:1000B000B0E0E6E2F0E0808184608C93A7E2B0E0FB
:1000C000E7E2F0E080818F778C93A6E2B0E0E6E291
:1000D000F0E0808180648C93A7E2B0E0E7E2F0E09A
:1000E000808180648C93CF91DF910895DF93CF93CB
:1000F00000D00F92CDB7DEB78B83A7E2B0E0E7E286
:10010000F0E08081807E8C93A7E2B0E0E7E2F0E04F
:1001100090818B81892B8C93A6E2B0E0E6E2F0E03F
:10012000808180648C93E6E2F0E0808182958F701C
:10013000882F90E0817090700097A9F3A6E2B0E05C
:10014000E6E2F0E0808180618C93E4E2F0E080817F
:100150008295869586958370882F90E09A8389830F
:10016000E5E2F0E08081882F90E09C01220F331FB0
:10017000220F331F89819A81822B932B9A83898343
:1001800089819A810F900F900F90CF91DF91089500
:10019000DF93CF9300D000D000D0CDB7DEB78983F6
:1001A0006A834B838A81883008F0E1C0898184307A
:1001B00008F0DDC08B81813021F08B81882309F02C
:1001C000D3C08981282F30E03E832D838D819E818D
:1001D0008130910509F443C02D813E8122303105E3
:1001E0002CF48D819E81009771F0BCC02D813E81E1
:1001F0002230310509F45FC08D819E8183309105E5
:1002000009F485C0AFC08B818130A1F4ABE3B0E0CD
:10021000EBE3F0E08081482F8A81282F30E081E0F5
:1002200090E0022E02C0880F991F0A94E2F7842BF7
:100230008C9398C0ABE3B0E0EBE3F0E08081482F13
:100240008A81282F30E081E090E0022E02C0880FE2
:10025000991F0A94E2F7809584238C9383C08B8145
:100260008130A1F4A8E3B0E0E8E3F0E08081482F1A
:100270008A81282F30E081E090E0022E02C0880FB2
:10028000991F0A94E2F7842B8C936CC0A8E3B0E02A
:10029000E8E3F0E08081482F8A81282F30E081E078
:1002A00090E0022E02C0880F991F0A94E2F7809511
:1002B00084238C9357C08B818130A1F4A5E3B0E0F7
:1002C000E5E3F0E08081482F8A81282F30E081E04B
:1002D00090E0022E02C0880F991F0A94E2F7842B47
:1002E0008C9340C0A5E3B0E0E5E3F0E08081482FC7
:1002F0008A81282F30E081E090E0022E02C0880F32
:10030000991F0A94E2F7809584238C932BC08B81EC
:100310008130A1F4A2E3B0E0E2E3F0E08081482F75
:100320008A81282F30E081E090E0022E02C0880F01
:10033000991F0A94E2F7842B8C9314C0A2E3B0E0D7
:10034000E2E3F0E08081482F8A81282F30E081E0CD
:1003500090E0022E02C0880F991F0A94E2F7809560
:1003600084238C931C8205C09AEF9C8302C02FEFDC
:100370002C838C8126960FB6F894DEBF0FBECDBFBE
:10038000CF91DF910895DF93CF9300D000D000D0BC
:10039000CDB7DEB78A836B838A81843008F071C061
:1003A0008B81883008F06AC08A81282F30E03E8334
:1003B0002D834D815E814130510541F18D819E81BA
:1003C0008230910534F42D813E812115310561F093
:1003D00052C04D815E814230510551F18D819E8127
:1003E00083309105B9F147C0E9E3F0E08081282F1F
:1003F00030E08B81882F90E0A90102C05595479588
:100400008A95E2F7CA018170898335C0E6E3F0E09E
:100410008081282F30E08B81882F90E0A90102C0D5
:10042000559547958A95E2F7CA018170898323C063
:10043000E3E3F0E08081282F30E08B81882F90E08B
:10044000A90102C0559547958A95E2F7CA018170C6
:10045000898311C0E0E3F0E08081282F30E08B81B8
:10046000882F90E0A90102C0559547958A95E2F73B
:10047000CA018170898359815C8305C08FEF8C83A9
:1004800002C095EF9C838C8126960FB6F894DEBF50
:100490000FBECDBFCF91DF910895DF93CF9300D0F2
:1004A00000D000D0CDB7DEB789836A834B838981C2
:1004B000843008F0DAC08A81883008F0D3C089819E
:1004C000282F30E03E832D838D819E8181309105E0
:1004D00009F443C02D813E81223031052CF48D81F9
:1004E0009E81009771F0BCC02D813E812230310584
:1004F00009F45FC08D819E818330910509F485C028
:10050000AFC08B818130A1F4AAE3B0E0EAE3F0E070
:100510008081482F8A81282F30E081E090E0022EF0
:1005200002C0880F991F0A94E2F7842B8C9398C01D
:10053000AAE3B0E0EAE3F0E08081482F8A81282F27
:1005400030E081E090E0022E02C0880F991F0A94EB
:10055000E2F7809584238C9383C08B818130A1F452
:10056000A7E3B0E0E7E3F0E08081482F8A81282FFD
:1005700030E081E090E0022E02C0880F991F0A94BB
:10058000E2F7842B8C936CC0A7E3B0E0E7E3F0E0E4
:100590008081482F8A81282F30E081E090E0022E70
:1005A00002C0880F991F0A94E2F7809584238C93E8
:1005B00057C08B818130A1F4A4E3B0E0E4E3F0E024
:1005C0008081482F8A81282F30E081E090E0022E40
:1005D00002C0880F991F0A94E2F7842B8C9340C0C5
:1005E000A4E3B0E0E4E3F0E08081482F8A81282F83
:1005F00030E081E090E0022E02C0880F991F0A943B
:10060000E2F7809584238C932BC08B818130A1F4F9
:10061000A1E3B0E0E1E3F0E08081482F8A81282F58
:1006200030E081E090E0022E02C0880F991F0A940A
:10063000E2F7842B8C9314C0A1E3B0E0E1E3F0E097
:100640008081482F8A81282F30E081E090E0022EBF
:1006500002C0880F991F0A94E2F7809584238C9337
:100660001C8205C09FEF9C8302C025EF2C838C81E8
:1006700026960FB6F894DEBF0FBECDBFCF91DF91A7
:100680000895DF93CF9300D000D00F92CDB7DEB79F
:1006900089836A8389818430A0F58981282F30E09D
:1006A0003D832C838C819D8181309105D1F02C81FB
:1006B0003D81223031052CF48C819D81009761F0C1
:1006C0001EC02C813D812230310581F08C819D81BD
:1006D0008330910581F013C0EAE3F0E08A818083E2
:1006E0000EC0E7E3F0E08A81808309C0E4E3F0E034
:1006F0008A81808304C0E1E3F0E08A8180831B82E9
:1007000002C095EF9B838B810F900F900F900F90FD
:100710000F90CF91DF910895DF93CF9300D000D059
:100720000F92CDB7DEB789836A8389818430A0F5C3
:100730008981282F30E03D832C838C819D818130FD
:100740009105D1F02C813D81223031052CF48C8132
:100750009D81009761F01EC02C813D8122303105C2
:1007600081F08C819D818330910581F013C0EBE392
:10077000F0E08A8180830EC0E8E3F0E08A81808324
:1007800009C0E5E3F0E08A81808304C0E2E3F0E0A1
:100790008A8180831B8202C095EF9B838B810F909F
:1007A0000F900F900F900F90CF91DF910895DF93EE
:1007B000CF9300D000D000D0CDB7DEB78A836B8353
:1007C0008A81843008F06AC08A81282F30E03E8315
:1007D0002D834D815E814130510541F18D819E8196
:1007E0008230910534F42D813E812115310561F06F
:1007F00052C04D815E814230510551F18D819E8103
:1008000083309105B9F147C0EAE3F0E08081282FF9
:1008100030E08B81882F90E0A90102C05595479563
:100820008A95E2F7CA018170898335C0E7E3F0E079
:100830008081282F30E08B81882F90E0A90102C0B1
:10084000559547958A95E2F7CA018170898323C03F
:10085000E4E3F0E08081282F30E08B81882F90E066
:10086000A90102C0559547958A95E2F7CA018170A2
:10087000898311C0E1E3F0E08081282F30E08B8193
:10088000882F90E0A90102C0559547958A95E2F717
:10089000CA018170898359815C8302C085EF8C8392
:1008A0008C8126960FB6F894DEBF0FBECDBFCF91D8
:1008B000DF910895DF93CF9300D000D00F92CDB792
:1008C000DEB78A838A818430A8F58A81282F30E0B8
:1008D0003D832C838C819D8181309105D1F02C81C9
:1008E0003D81223031052CF48C819D81009761F08F
:1008F0001EC02C813D812230310581F08C819D818B
:100900008330910581F013C0EAE3F0E080818983B0
:100910000EC0E7E3F0E08081898309C0E4E3F0E002
:100920008081898304C0E1E3F0E08081898399813B
:100930009B8302C025EF2B838B810F900F900F902C
:100940000F900F90CF91DF910895DF93CF9300D058
:1009500000D000D0CDB7DEB789837B836A838981DD
:100960008430E0F58981282F30E03E832D838D810E
:100970009E8181309105E1F02D813E81223031054B
:100980002CF48D819E81009761F026C02D813E81DF
:1009900022303105A1F08D819E8183309105B1F027
:1009A0001BC0E9E3F0E08081EA81FB81808314C011
:1009B000E6E3F0E08081EA81FB8180830DC0E3E320
:1009C000F0E08081EA81FB81808306C0E0E3F0E013
:1009D0008081EA81FB8180831C8202C095EF9C8329
:1009E0008C8126960FB6F894DEBF0FBECDBFCF9197
:1009F000DF9108951F920F920FB60F9211242F933B
:100A00003F934F935F936F937F938F939F93AF9396
:100A1000BF93EF93FF93DF93CF93CDB7DEB7809172
:100A2000620090916300009729F0E0916200F091DC
:100A300063000995CF91DF91FF91EF91BF91AF9145
:100A40009F918F917F916F915F914F913F912F91E6
:100A50000F900FBE0F901F9018951F920F920FB618
:100A60000F9211242F933F934F935F936F937F9334
:100A70008F939F93AF93BF93EF93FF93DF93CF93A6
:100A8000CDB7DEB78091640090916500009729F0A2
:100A9000E0916400F09165000995CF91DF91FF919D
:100AA000EF91BF91AF919F918F917F916F915F91E6
:100AB0004F913F912F910F900FBE0F901F9018955F
:100AC0001F920F920FB60F9211242F933F934F93C3
:100AD0005F936F937F938F939F93AF93BF93EF93A6
:100AE000FF93DF93CF93CDB7DEB7809160009091F5
:100AF0006100009729F0E0916000F0916100099594
:100B0000CF91DF91FF91EF91BF91AF919F918F9125
:100B10007F916F915F914F913F912F910F900FBEF9
:100B20000F901F901895DF93CF9300D00F92CDB701
:100B3000DEB789838981282F30E03B832A838A812D
:100B40009B81009769F02A813B812130310579F43E
:100B5000AFE5B0E0EFE5F0E0808180688C9307C0FE
:100B6000AFE5B0E0EFE5F0E080818F778C930F90F8
:100B70000F900F90CF91DF910895DF93CF9300D026
:100B8000CDB7DEB789836A838A818130A1F4ABE572
:100B9000B0E0EBE5F0E08081482F8981282F30E03C
:100BA00081E090E0022E02C0880F991F0A94E2F7BC
:100BB000842B8C9314C0ABE5B0E0EBE5F0E08081D2
:100BC000482F8981282F30E081E090E0022E02C07A
:100BD000880F991F0A94E2F7809584238C930F90D5
:100BE0000F90CF91DF910895DF93CF9300D000D085
:100BF000CDB7DEB789836A838981282F30E03C83B3
:100C00002B838B819C818630910561F02B813C8107
:100C100027303105A9F18B819C818530910509F43C
:100C20005DC072C08A81882F90E0817090708823A7
:100C300041F0A5E5B0E0E5E5F0E0808181608C93CE
:100C400007C0A5E5B0E0E5E5F0E080818E7F8C93FC
:100C50008A818695882F90E081709070882341F07A
:100C6000A5E5B0E0E5E5F0E0808182608C934CC0C2
:100C7000A5E5B0E0E5E5F0E080818D7F8C9344C090
:100C80008A81882F90E081709070882341F0A5E5DB
:100C9000B0E0E5E5F0E0808184608C9307C0A5E5D5
:100CA000B0E0E5E5F0E080818B7F8C938A818695CA
:100CB000882F90E081709070882341F0A5E5B0E026
:100CC000E5E5F0E0808188608C931EC0A5E5B0E08A
:100CD000E5E5F0E08081877F8C9316C08A81882FBC
:100CE00090E081709070882341F0A4E5B0E0E4E5E5
:100CF000F0E0808180648C9307C0A4E5B0E0E4E577
:100D0000F0E080818F7B8C930F900F900F900F906D
:100D1000CF91DF910895DF93CF9300D00F92CDB79D
:100D2000DEB789837B836A838981882F90E005976A
:100D3000880F991FFC01E05AFF4F8A819B819183A4
:100D400080830F900F900F90CF91DF9108950F93B4
:100D50001F93DF93CF93CDB7DEB70E943E0080E0B4
:100D600060E040E00E944D0281E063E041E00E94CB
:100D70004D02E3E5F0E08AE780830CE510E080E0D7
:100D80000E9476009695879596958795F8018083C1
:060D9000F4CFF894FFCF40
:00000001FF
