:100000000C942A000C943F000C943F000C943F0089
:100010000C943F000C943F000C943F000C943F0064
:100020000C943F000C943F000C943F000C943F0054
:100030000C943F000C943F000C943F000C943F0044
:100040000C943F000C943F000C943F000C943F0034
:100050000C943F0011241FBECFE5D8E0DEBFCDBF1A
:1000600010E0A0E6B0E0E0EFF1E202C005900D92F2
:10007000A238B107D9F70E94910F0C94F6100C9496
:100080000000EF92FF920F931F937B018C0120E001
:1000900030E040E05FE40E94ED0388238CF0C8016B
:1000A000B70120E030E040E05FE40E94B9010E9427
:1000B0004D049B01AC01205030404040504806C0E8
:1000C000C801B7010E944D049B01AC01B901CA01EE
:1000D0001F910F91FF90EF900895A0E0B0E0E3E74B
:1000E000F0E00C94BF10DC012B01FA019C919230DE
:1000F00008F439C1EB018881823008F433C19430AF
:1001000069F4843009F02FC111969C91119789816F
:10011000981709F428C1A9E7B0E025C1843009F493
:1001200021C18230A9F4923009F01DC19A01AD01BC
:1001300088E0EA010990AE01E90109929E0181502F
:10014000C1F7E201898111969C918923818308C1BD
:10015000923009F407C112962D903C901397EB0151
:100160008A819B811496AD90BD90CD90DC901797BD
:10017000EC80FD800E811F819101281B390BB90194
:1001800037FF04C066277727621B730B6032710547
:100190000CF061C0121613066CF537014801062EEB
:1001A00004C096948794779467940A94D2F721E0D8
:1001B00030E040E050E004C0220F331F441F551FC1
:1001C0006A95D2F721503040404050402E213F21C7
:1001D00040235123211531054105510521F021E02E
:1001E00030E040E050E079018A01E628F72808294C
:1001F00019293CC0232BD1F1260E371E35014601AB
:10020000062E04C096948794779467940A94D2F744
:1002100021E030E040E050E004C0220F331F441FD3
:10022000551F6A95D2F721503040404050402A2156
:100230003B214C215D21211531054105510521F05E
:1002400021E030E040E050E059016A01A628B728DB
:10025000C828D9280BC0821593052CF01C01AA24AC
:10026000BB24650103C0EE24FF24870111969C91F5
:10027000D20111968C91981709F445C0992339F051
:10028000A80197012A193B094C095D0906C0A6017E
:1002900095012E193F09400B510B57FD08C01182E3
:1002A0003382228224833583468357831DC081E0B5
:1002B00081833382228288279927DC01821B930B5A
:1002C000A40BB50B84839583A683B7830DC0220F3F
:1002D000331F441F551F24833583468357838281F0
:1002E000938101979383828324813581468157814D
:1002F000DA01C9010197A109B1098F5F9F4FAF4F83
:10030000BF4328F30BC0918333822282EA0CFB1C8B
:100310000C1D1D1DE482F5820683178383E0808314
:10032000248135814681578157FF1AC0C901AA2708
:1003300097FDA095BA2F81709070A070B0705695FF
:10034000479537952795822B932BA42BB52B848328
:100350009583A683B7838281938101969383828359
:10036000DF0101C0D201CD01CDB7DEB7E2E10C94CF
:10037000DB10A0E2B0E0EFEBF1E00C94CB1069836E
:100380007A838B839C832D833E834F835887E9E058
:10039000EE2EF12CEC0EFD1ECE010196B7010E944F
:1003A00076058E010F5E1F4FCE010596B8010E94A3
:1003B00076058A8991E089278A8BC701B801AE0149
:1003C000475E5F4F0E946D000E94A104A096E6E088
:1003D0000C94E710A0E2B0E0E0EFF1E00C94CB1059
:1003E00069837A838B839C832D833E834F835887D5
:1003F000F9E0EF2EF12CEC0EFD1ECE010196B701B7
:100400000E9476058E010F5E1F4FCE010596B80142
:100410000E947605C701B801AE01475E5F4F0E949A
:100420006D000E94A104A096E6E00C94E710A0E203
:10043000B0E0EDE1F2E00C94BF1069837A838B8326
:100440009C832D833E834F835887CE010196BE0146
:10045000675F7F4F0E947605CE010596BE016F5EF5
:100460007F4F0E9476059985923088F08989823085
:10047000C8F0943019F4823051F404C0843029F467
:10048000923081F489E790E0C6C0923049F420E0D0
:100490009A858A89981321E02A87CE010996BBC0E4
:1004A000823049F420E09A858A89981321E02A8BCA
:1004B000CE014196B0C02D843E844F8458886D880B
:1004C0007E888F88988CEE24FF248701AA24BB2481
:1004D000650140E050E060E070E0E0E0F0E0C10184
:1004E00081709070892BE9F0E60CF71C081D191D2E
:1004F0009A01AB012A0D3B1D4C1D5D1D80E090E073
:10050000A0E0B0E0E614F7040805190520F481E046
:1005100090E0A0E0B0E0BA01A901480F591F6A1F9E
:100520007B1FAA0CBB1CCC1CDD1C97FE08C081E005
:1005300090E0A0E0B0E0A82AB92ACA2ADB2A3196C6
:10054000E032F10549F0660C771C881C991C569422
:10055000479437942794C3CFFA85EA892B893C893D
:100560008B859C85280F391F2E5F3F4F17C0CA010E
:1005700081709070892B61F016950795F794E79438
:1005800080E090E0A0E0B0E8E82AF92A0A2B1B2BD3
:1005900076956795579547952F5F3F4F77FDE7CF46
:1005A0000CC0440F551F661F771F17FD4160EE0CEE
:1005B000FF1C001F111F21503040403090E05907B0
:1005C00090E0690790E4790760F32B8F3C8FDB01A3
:1005D000CA018F779070A070B07080349105A1052A
:1005E000B10561F447FD0AC0E114F10401051105EC
:1005F00029F0405C5F4F6F4F7F4F40781A8EFE1797
:1006000011F081E08A8F4D8F5E8F6F8F78A383E02A
:10061000898FCE0149960E94A104A096E2E10C9434
:10062000DB10A8E1B0E0E7E1F3E00C94C7106983C8
:100630007A838B839C832D833E834F835887B9E0D5
:10064000EB2EF12CEC0EFD1ECE010196B7010E949F
:1006500076058E010F5E1F4FCE010596B8010E94F0
:1006600076052985223008F47EC03989323010F4AD
:10067000B8017CC08A859A8989278A87243011F03D
:10068000223031F4231709F06EC069E770E06EC0C4
:10069000343039F41D861E861F86188A1C861B86F8
:1006A00004C0323021F484E08987B7015FC02B8514
:1006B0003C858B899C89281B390B3C872B87ED84D3
:1006C000FE840F851889AD88BE88CF88D88CEA143F
:1006D000FB040C051D0540F4EE0CFF1C001F111F50
:1006E000215030403C872B8720E030E040E050E054
:1006F00080E090E0A0E0B0E460E070E0EA14FB0489
:100700000C051D0540F0282B392B4A2B5B2BEA18D2
:10071000FB080C091D09B695A79597958795EE0CD2
:10072000FF1C001F111F6F5F7F4F6F31710531F785
:10073000DA01C9018F779070A070B0708034910594
:10074000A105B10561F427FD0AC0E114F10401051A
:10075000110529F0205C3F4F4F4F5F4F20782D87C8
:100760003E874F87588BBE01675F7F4FCB010E944A
:10077000A1046896EAE00C94E310A8E1B0E0E3EC91
:10078000F3E00C94CB1069837A838B839C832D8355
:100790003E834F83588789E0E82EF12CEC0EFD1E36
:1007A000CE010196B7010E9476058E010F5E1F4FA4
:1007B000CE010596B8010E9476058985823040F009
:1007C0008989823028F0C701B8010E94EE0501C076
:1007D0008FEF6896E6E00C94E710A8E1B0E0E3EF55
:1007E000F3E00C94CB1069837A838B839C832D83F5
:1007F0003E834F83588789E0E82EF12CEC0EFD1ED6
:10080000CE010196B7010E9476058E010F5E1F4F43
:10081000CE010596B8010E9476058985823040F0A8
:100820008989823028F0C701B8010E94EE0501C015
:100830008FEF6896E6E00C94E710A8E1B0E0E3E201
:10084000F4E00C94CB1069837A838B839C832D8393
:100850003E834F83588789E0E82EF12CEC0EFD1E75
:10086000CE010196B7010E9476058E010F5E1F4FE3
:10087000CE010596B8010E9476058985823040F048
:100880008989823028F0C701B8010E94EE0501C0B5
:1008900081E06896E6E00C94E710ACE0B0E0E3E5B8
:1008A000F4E00C94CF1069837A838B839C83CE0110
:1008B0000196BE016B5F7F4F0E9476058D8182306D
:1008C00061F1823050F1843021F48E81882351F11E
:1008D0002EC02F81388537FD20C06E812F31310524
:1008E0001CF06623F9F023C08EE190E0821B930B8D
:1008F00029853A854B855C8504C056954795379583
:1009000027958A95D2F76623B1F05095409530959A
:1009100021953F4F4F4F5F4F0EC020E030E040E049
:1009200050E009C02FEF3FEF4FEF5FE704C020E03A
:1009300030E040E050E8B901CA012C96E2E00C94A6
:10094000EB10DF92EF92FF920F931F93FC01E48074
:10095000F58006811781D1808081823048F480E063
:1009600090E0A0E1B0E0E82AF92A0A2B1B2BA5C0F1
:10097000843009F49FC0823021F4EE24FF248701E3
:1009800005C0E114F1040105110519F4E0E0F0E0FF
:1009900096C0628173819FEF623879070CF05BC06B
:1009A00022E83FEF261B370B2A3131052CF020E0DF
:1009B00030E040E050E02AC0B801A701022E04C098
:1009C00076956795579547950A94D2F781E090E020
:1009D000A0E0B0E004C0880F991FAA1FBB1F2A9592
:1009E000D2F70197A109B1098E219F21A023B1233C
:1009F0000097A105B10521F081E090E0A0E0B0E012
:100A00009A01AB01282B392B4A2B5B2BDA01C90148
:100A10008F779070A070B07080349105A105B105FA
:100A200039F427FF09C0205C3F4F4F4F5F4F04C090
:100A3000215C3F4F4F4F5F4FE0E0F0E02030A0E0FF
:100A40003A07A0E04A07A0E45A0710F0E1E0F0E01E
:100A500079018A0127C06038710564F5FB01E1580E
:100A6000FF4FD801C7018F779070A070B0708034AD
:100A70009105A105B10539F4E7FE0DC080E490E0D1
:100A8000A0E0B0E004C08FE390E0A0E0B0E0E80EAA
:100A9000F91E0A1F1B1F17FF05C016950795F7942F
:100AA000E794319687E016950795F794E7948A9531
:100AB000D1F705C0EE24FF248701EFEFF0E06E2FA1
:100AC000679566276795902F9F77D794DD24D794F5
:100AD0008E2F8695492F462B582F5D29B701CA01C5
:100AE0001F910F91FF90EF90DF900895FC01DB01C3
:100AF000408151812281622F6F7770E0221F22276F
:100B0000221F9381892F880F822B282F30E0991F75
:100B10009927991F11969C93119721153105A9F5D5
:100B2000411551056105710511F482E037C082E875
:100B30009FEF13969C938E9312979A01AB0167E0F7
:100B4000220F331F441F551F6A95D1F783E08C9302
:100B50000DC0220F331F441F551F12968D919C917B
:100B60001397019713969C938E931297203080E0F1
:100B7000380780E0480780E4580758F314962D930F
:100B80003D934D935C93179708952F3F310579F46A
:100B9000411551056105710519F484E08C930895A0
:100BA00064FF03C081E08C9312C01C9210C02F57C9
:100BB000304013963C932E93129783E08C9387E0FA
:100BC000440F551F661F771F8A95D1F770641496DE
:100BD0004D935D936D937C93179708951F93DC015C
:100BE000FB019C91923008F447C08081823008F468
:100BF00043C0943051F411961C91843099F5818151
:100C0000682F70E0611B71093FC0843021F0923081
:100C100031F48230B9F18181882389F12DC0119698
:100C20001C9111978230F1F081811817D9F4129636
:100C30002D913C911397828193818217930794F0B1
:100C400028173907BCF014968D919D910D90BC9199
:100C5000A02D2481358146815781281739074A07FD
:100C60005B0718F4112341F00AC082179307A40709
:100C7000B50740F4112319F061E070E005C06FEF93
:100C80007FEF02C060E070E0CB011F910895DF9319
:100C9000CF9300D000D000D0CDB7DEB789836A8370
:100CA0004B838A81883008F0DEC08B81882321F055
:100CB0008B81813009F0D4C08981282F30E03E83B8
:100CC0002D838D819E818130910509F443C02D8152
:100CD0003E81223031052CF48D819E81009771F088
:100CE000BCC02D813E812230310509F45FC08D8169
:100CF0009E818330910509F485C0AFC08B8181301E
:100D0000A1F4ABE3B0E0EBE3F0E08081482F8A810F
:100D1000282F30E081E090E0022E02C0880F991F5A
:100D20000A94E2F7842B8C9398C0ABE3B0E0EBE33A
:100D3000F0E08081482F8A81282F30E081E090E028
:100D4000022E02C0880F991F0A94E2F7809584232F
:100D50008C9383C08B818130A1F4A8E3B0E0E8E3F9
:100D6000F0E08081482F8A81282F30E081E090E0F8
:100D7000022E02C0880F991F0A94E2F7842B8C93ED
:100D80006CC0A8E3B0E0E8E3F0E08081482F8A81FE
:100D9000282F30E081E090E0022E02C0880F991FDA
:100DA0000A94E2F7809584238C9357C08B8181301D
:100DB000A1F4A5E3B0E0E5E3F0E08081482F8A816B
:100DC000282F30E081E090E0022E02C0880F991FAA
:100DD0000A94E2F7842B8C9340C0A5E3B0E0E5E3EE
:100DE000F0E08081482F8A81282F30E081E090E078
:100DF000022E02C0880F991F0A94E2F7809584237F
:100E00008C932BC08B818130A1F4A2E3B0E0E2E3AC
:100E1000F0E08081482F8A81282F30E081E090E047
:100E2000022E02C0880F991F0A94E2F7842B8C933C
:100E300014C0A2E3B0E0E2E3F0E08081482F8A81B1
:100E4000282F30E081E090E0022E02C0880F991F29
:100E50000A94E2F7809584238C9391E09C8305C0EB
:100E60002FEF2C8302C03FEF3C838C8126960FB678
:100E7000F894DEBF0FBECDBFCF91DF910895DF9311
:100E8000CF9300D000D000D0CDB7DEB78A836B837C
:100E90008A81843008F06EC08B81883008F06AC087
:100EA0008A81282F30E03E832D834D815E81413041
:100EB000510541F18D819E818230910534F42D815F
:100EC0003E812115310561F052C04D815E81423075
:100ED000510551F18D819E8183309105B9F147C053
:100EE000E9E3F0E08081282F30E08B81882F90E0CB
:100EF000A90102C0559547958A95E2F7CA0181700C
:100F0000898335C0E6E3F0E08081282F30E08B81D3
:100F1000882F90E0A90102C0559547958A95E2F780
:100F2000CA018170898323C0E3E3F0E08081282F28
:100F300030E08B81882F90E0A90102C0559547953C
:100F40008A95E2F7CA018170898311C0E0E3F0E07D
:100F50008081282F30E08B81882F90E0A90102C08A
:100F6000559547958A95E2F7CA0181708983598121
:100F70005C8302C08FEF8C838C8126960FB6F89429
:100F8000DEBF0FBECDBFCF91DF910895DF93CF932A
:100F900000D000D00F92CDB7DEB789836A834B8330
:100FA0008981843008F0D5C08A81883008F0D1C0AA
:100FB0008981282F30E03D832C838C819D81813075
:100FC000910509F443C02C813D81223031052CF478
:100FD0008C819D81009771F0BCC02C813D812230B5
:100FE000310509F45FC08C819D818330910509F43E
:100FF00085C0AFC08B818130A1F4AAE3B0E0EAE301
:10100000F0E08081482F8A81282F30E081E090E055
:10101000022E02C0880F991F0A94E2F7842B8C934A
:1010200098C0AAE3B0E0EAE3F0E08081482F8A812B
:10103000282F30E081E090E0022E02C0880F991F37
:101040000A94E2F7809584238C9383C08B8181304E
:10105000A1F4A7E3B0E0E7E3F0E08081482F8A81C4
:10106000282F30E081E090E0022E02C0880F991F07
:101070000A94E2F7842B8C936CC0A7E3B0E0E7E31B
:10108000F0E08081482F8A81282F30E081E090E0D5
:10109000022E02C0880F991F0A94E2F780958423DC
:1010A0008C9357C08B818130A1F4A4E3B0E0E4E3DA
:1010B000F0E08081482F8A81282F30E081E090E0A5
:1010C000022E02C0880F991F0A94E2F7842B8C939A
:1010D00040C0A4E3B0E0E4E3F0E08081482F8A81DF
:1010E000282F30E081E090E0022E02C0880F991F87
:1010F0000A94E2F7809584238C932BC08B818130F6
:10110000A1F4A1E3B0E0E1E3F0E08081482F8A811F
:10111000282F30E081E090E0022E02C0880F991F56
:101120000A94E2F7842B8C9314C0A1E3B0E0E1E3CE
:10113000F0E08081482F8A81282F30E081E090E024
:10114000022E02C0880F991F0A94E2F7809584232B
:101150008C930F900F900F900F900F90CF91DF9185
:101160000895DF93CF9300D000D0CDB7DEB7898349
:101170006A838981282F30E03C832B838B819C817B
:1011800081309105D1F02B813C81223031052CF446
:101190008B819C81009761F01EC02B813C812230A5
:1011A000310581F08B819C818330910581F013C0E2
:1011B000EAE3F0E08A8180830EC0E7E3F0E08A8111
:1011C000808309C0E4E3F0E08A81808304C0E1E326
:1011D000F0E08A8180830F900F900F900F90CF9155
:1011E000DF910895DF93CF9300D000D0CDB7DEB765
:1011F00089836A838981282F30E03C832B838B810C
:101200009C8181309105D1F02B813C8122303105C8
:101210002CF48B819C81009761F01EC02B813C8156
:101220002230310581F08B819C818330910581F0E2
:1012300013C0EBE3F0E08A8180830EC0E8E3F0E0C6
:101240008A81808309C0E5E3F0E08A81808304C05D
:10125000E2E3F0E08A8180830F900F900F900F906F
:10126000CF91DF910895DF93CF9300D000D00F92FC
:10127000CDB7DEB78A838A81282F30E03D832C8367
:101280008C819D8181309105D1F02C813D8122306E
:1012900031052CF48C819D81009761F01FC02C8159
:1012A0003D812230310581F08C819D818330910513
:1012B00081F014C0E9E3F0E08081898312C0E6E3A5
:1012C000F0E0808189830DC0E3E3F0E080818983D1
:1012D00008C0E0E3F0E08081898303C09FEF9B8337
:1012E00002C029812B838B810F900F900F900F905C
:1012F0000F90CF91DF910895DF93CF930F92CDB7E9
:10130000DEB7898380E060E040E00E944706898183
:101310000E941B0B0F90CF91DF910895DF93CF9325
:101320000F92CDB7DEB7898380E060E041E00E9494
:10133000470689810E941B0B0F90CF91DF91089582
:10134000DF93CF9300D000D00F92CDB7DEB79B8351
:101350008A836C834D838D81882F90E0002496953D
:1013600087950794969587950794982F802D982FA9
:101370008C81890F898389818068898389810E9412
:101380007C090AC0EA81FB8180810E948E098A81E2
:101390009B8101969B838A83EA81FB8180818823DC
:1013A00089F70F900F900F900F900F90CF91DF91D2
:1013B0000895DF93CF93CDB7DEB76A970FB6F89451
:1013C000DEBF0FBECDBF6F8B788F898F9A8F19824A
:1013D00030C08F89988DA98DBA8D2AE030E040E029
:1013E00050E0BC01CD010E949D10DC01CB018A833D
:1013F0008981282F30E08A81482F405DCE010396F5
:10140000FC01E20FF31F408389818F5F89838F89FD
:10141000988DA98DBA8D2AE030E040E050E0BC0103
:10142000CD010E949D10DA01C9018F8B988FA98F81
:10143000BA8F8F89988DA98DBA8D0097A105B105B6
:1014400041F68981282F30E0CE010396FC01E20F9E
:10145000F31F1082CE01039669810E94C60ACE0155
:10146000039660E040E00E94A0096A960FB6F894E7
:10147000DEBF0FBECDBFCF91DF910895DF93CF9335
:10148000CDB7DEB72E970FB6F894DEBF0FBECDBF37
:1014900081E00E947C0980E090E0A0E0B0E48B87CE
:1014A0009C87AD87BE876B857C858D859E8520E07A
:1014B00030E04AEF54E40E941702DC01CB018F8335
:1014C0009887A987BA876F81788589859A8520E072
:1014D00030E040E85FE30E941D0488232CF481E0A3
:1014E00090E09E838D833FC06F81788589859A8542
:1014F00020E03FEF4FE757E40E94BD0318164CF57C
:101500006B857C858D859E8520E030E040E251E44E
:101510000E941702DC01CB01BC01CD010E944100F9
:10152000DC01CB019E838D830FC088EC90E09C830F
:101530008B838B819C810197F1F79C838B838D81B9
:101540009E8101979E838D838D819E81009769F78F
:1015500014C06F81788589859A850E944100DC01DD
:10156000CB019E838D838D819E819A83898389811E
:101570009A810197F1F79A8389832E960FB6F89492
:10158000DEBF0FBECDBFCF91DF910895DF93CF9324
:1015900000D000D00F92CDB7DEB79C838B836D83D4
:1015A0001A828D818150898319C08A81282F30E069
:1015B0008B819C81AC01420F531F8981282F30E021
:1015C0008B819C81280F391FCA01B9010E94FA0A38
:1015D0008A818F5F8A838981815089839A818981F9
:1015E000981718F30F900F900F900F900F90CF91C6
:1015F000DF910895DF93CF9300D000D00F92CDB745
:10160000DEB79B838A837D836C83EA81FB81808143
:101610008983EC81FD818081EA81FB818083EC817B
:10162000FD81898180830F900F900F900F900F9014
:10163000CF91DF910895DF93CF93CDB7DEB7699750
:101640000FB6F894DEBF0FBECDBF898F80E061E09A
:1016500040E00E944706898D982F917081E060E0FC
:10166000492F0E944706898D8695982F917081E0B9
:1016700061E0492F0E944706898D86958695982FAF
:10168000917081E062E0492F0E944706898D86951E
:1016900086958695982F917081E063E0492F0E948E
:1016A0004706898D82958F70982F917081E064E054
:1016B000492F0E944706898D829586958770982FBD
:1016C000917081E065E0492F0E944706898D8295DF
:1016D000869586958370982F917081E066E0492FFA
:1016E0000E944706898D982F991F9927991F81E09D
:1016F00067E0492F0E94470680E062E041E00E94D7
:10170000470680E090E0A0E8BFE38D8B9E8BAF8B17
:10171000B88F6D897E898F89988D2BEA3AEA4AE2E3
:1017200050E40E941702DC01CB01898B9A8BAB8BB2
:10173000BC8B69897A898B899C8920E030E040E8FC
:101740005FE30E941D0488231CF481E0888B91C014
:1017500069897A898B899C8920E030E04FE753E4DE
:101760000E94BD0318160CF07BC06D897E898F899D
:10177000988D20E030E04AE754E40E941103DC0138
:10178000CB018C879D87AE87BF876C857D858E85D5
:101790009F8520E030E04AEF54E40E941702DC010C
:1017A000CB0188879987AA87BB87688579858A85D1
:1017B0009B8520E030E040E85FE30E941D04882321
:1017C0002CF481E090E09F838E833FC0688579850B
:1017D0008A859B8520E03FEF4FE757E40E94BD03D9
:1017E00018164CF56C857D858E859F8520E030E050
:1017F00040E251E40E941702DC01CB01BC01CD01A3
:101800000E944100DC01CB019F838E830FC088ECD6
:1018100090E09D838C838C819D810197F1F79D835E
:101820008C838E819F8101979F838E838E819F8180
:10183000009769F724C0688579858A859B850E9411
:101840004100DC01CB019F838E838E819F819B832E
:101850008A838A819B810197F1F79B838A830FC0DA
:1018600069897A898B899C890E944100DC01CB01BE
:10187000888B8889898389818A95F1F7898380E0BB
:1018800062E040E00E94470669960FB6F894DEBF1A
:101890000FBECDBFCF91DF9108950F931F93DF93BC
:1018A000CF93CDB7DEB7C655D0400FB6F894DEBFA4
:1018B0000FBECDBF81E06FEF0E94B10880E060E015
:1018C00041E00E94C60780E061E041E00E94C60757
:1018D00080E062E041E00E94C607FE01ED5AFF4F42
:1018E00080E090E0A8E4B2E480839183A283B38394
:1018F0008E01015B1F4FFE01ED5AFF4F6081718128
:101900008281938120E030E04AEF54E40E94170284
:10191000DC01CB01F80180839183A283B383FE01B4
:10192000E15BFF4F608171818281938120E030E033
:1019300040E85FE30E941D04882344F4FE01E35B5A
:10194000FF4F81E090E09183808364C0FE01E15B02
:10195000FF4F608171818281938120E03FEF4FE7EB
:1019600057E40E94BD0318160CF043C0FE01ED5A67
:10197000FF4F608171818281938120E030E040E2FD
:1019800051E40E941702DC01CB018E01035B1F4F63
:10199000BC01CD010E944100DC01CB01F801918323
:1019A00080831FC0FE01E55BFF4F88EC90E09183D0
:1019B0008083FE01E55BFF4F808191810197F1F704
:1019C000FE01E55BFF4F91838083DE01A35BBF4F88
:1019D000FE01E35BFF4F80819181019711969C93FB
:1019E0008E93FE01E35BFF4F808191810097D1F6DA
:1019F00027C08E01035B1F4FFE01E15BFF4F60813B
:101A00007181828193810E944100DC01CB01F80148
:101A100091838083DE01A75BBF4FFE01E35BFF4F35
:101A2000808191818D939C93FE01E75BFF4F8081C4
:101A300091810197F1F7FE01E75BFF4F918380836E
:101A400088E30E947C09FE01EB5BFF4F80E090E0A1
:101A5000A8E4B2E480839183A283B3838E010F5BF9
:101A60001F4FFE01EB5BFF4F60817181828193818B
:101A70002BEA3AEA4AE250E40E941702DC01CB0169
:101A8000F80180839183A283B383FE01EF5BFF4F54
:101A9000608171818281938120E030E040E85FE3E2
:101AA0000E941D04882334F481E0FE01E05CFF4FB6
:101AB00080839DC0FE01EF5BFF4F60817181828159
:101AC000938120E030E04FE753E40E94BD031816F5
:101AD0000CF07EC0FE01EB5BFF4F60817181828163
:101AE000938120E030E04AE754E40E941103DC01D6
:101AF000CB018CAF9DAFAEAFBFAF6CAD7DAD8EAD4A
:101B00009FAD20E030E04AEF54E40E941702DC0170
:101B1000CB0188AF99AFAAAFBBAF68AD79AD8AAD45
:101B20009BAD20E030E040E85FE30E941D04882385
:101B30002CF481E090E09FAB8EAB3FC068AD79ADF7
:101B40008AAD9BAD20E03FEF4FE757E40E94BD0315
:101B500018164CF56CAD7DAD8EAD9FAD20E030E03C
:101B600040E251E40E941702DC01CB01BC01CD012F
:101B70000E944100DC01CB019FAB8EAB0FC088EC13
:101B800090E09DAB8CAB8CA99DA90197F1F79DAB23
:101B90008CAB8EA99FA901979FAB8EAB8EA99FA9F5
:101BA000009769F72DC068AD79AD8AAD9BAD0E94F5
:101BB0004100DC01CB019FAB8EAB8EA99FA99BABF3
:101BC0008AAB8AA99BA90197F1F79BAB8AAB18C096
:101BD000FE01EF5BFF4F60817181828193810E94E2
:101BE0004100DC01CB01FE01E05CFF4F8083FE0180
:101BF000E05CFF4F808189AB89A98A95F1F789ABB9
:101C00008CE00E947C0980E090E0A8E4B2E48DA71B
:101C10009EA7AFA7B8AB6DA57EA58FA598A92BEA07
:101C20003AEA4AE250E40E941702DC01CB0189A79C
:101C30009AA7ABA7BCA769A57AA58BA59CA520E010
:101C400030E040E85FE30E941D0488231CF481E03B
:101C500088A791C069A57AA58BA59CA520E030E056
:101C60004FE753E40E94BD0318160CF07BC06DA52E
:101C70007EA58FA598A920E030E04AE754E40E94B1
:101C80001103DC01CB018CA39DA3AEA3BFA36CA168
:101C90007DA18EA19FA120E030E04AEF54E40E9494
:101CA0001702DC01CB0188A399A3AAA3BBA368A157
:101CB00079A18AA19BA120E030E040E85FE30E9487
:101CC0001D0488232CF481E090E09F8F8E8F3FC00D
:101CD00068A179A18AA19BA120E03FEF4FE757E4DB
:101CE0000E94BD0318164CF56CA17DA18EA19FA189
:101CF00020E030E040E251E40E941702DC01CB0119
:101D0000BC01CD010E944100DC01CB019F8F8E8F71
:101D10000FC088EC90E09D8F8C8F8C8D9D8D0197EE
:101D2000F1F79D8F8C8F8E8D9F8D01979F8F8E8F5A
:101D30008E8D9F8D009769F724C068A179A18AA133
:101D40009BA10E944100DC01CB019F8F8E8F8E8D65
:101D50009F8D9B8F8A8F8A8D9B8D0197F1F79B8F2B
:101D60008A8F0FC069A57AA58BA59CA50E9441000A
:101D7000DC01CB0188A788A5898F898D8A95F1F729
:101D8000898F81E00E947C0980E090E0A0E0B0E4CF
:101D90008D8B9E8BAF8BB88F6D897E898F89988D47
:101DA0002BEA3AEA4AE250E40E941702DC01CB0136
:101DB000898B9A8BAB8BBC8B69897A898B899C893F
:101DC00020E030E040E85FE30E941D0488231CF41B
:101DD00081E0888B91C069897A898B899C8920E010
:101DE00030E04FE753E40E94BD0318160CF07BC0AF
:101DF0006D897E898F89988D20E030E04AE754E430
:101E00000E941103DC01CB018C879D87AE87BF87C1
:101E10006C857D858E859F8520E030E04AEF54E417
:101E20000E941702DC01CB0188879987AA87BB87AC
:101E3000688579858A859B8520E030E040E85FE30E
:101E40000E941D0488232CF481E090E09F838E8300
:101E50003FC0688579858A859B8520E03FEF4FE705
:101E600057E40E94BD0318164CF56C857D858E8560
:101E70009F8520E030E040E251E40E941702DC013F
:101E8000CB01BC01CD010E944100DC01CB019F834D
:101E90008E830FC088EC90E09D838C838C819D8124
:101EA0000197F1F79D838C838E819F8101979F839A
:101EB0008E838E819F81009769F724C0688579851C
:101EC0008A859B850E944100DC01CB019F838E8324
:101ED0008E819F819B838A838A819B810197F1F701
:101EE0009B838A830FC069897A898B899C890E9428
:101EF0004100DC01CB01888B8889898389818A959F
:101F0000F1F7898386E00E947C09CA5ADF4F0FB639
:101F1000F894DEBF0FBECDBFCF91DF911F910F911F
:101F20000895DF93CF93CDB7DEB76C970FB6F894D3
:101F3000DEBF0FBECDBF0E944D0C82E060E041E0ED
:101F40000E94C60782E060E041E00E94470680E60A
:101F500090E060E040E00E94A00980E090E0A8EC02
:101F6000B2E4898F9A8FAB8FBC8F698D7A8D8B8D00
:101F70009C8D20E030E04AEF54E40E941702DC011F
:101F8000CB018D8B9E8BAF8BB88F6D897E898F89AE
:101F9000988D20E030E040E85FE30E941D04882334
:101FA0002CF481E090E09C8B8B8B3FC06D897E8907
:101FB0008F89988D20E03FEF4FE757E40E94BD03E3
:101FC00018164CF5698D7A8D8B8D9C8D20E030E054
:101FD00040E251E40E941702DC01CB01BC01CD01BB
:101FE0000E944100DC01CB019C8B8B8B0FC088ECE5
:101FF00090E09A8B898B89899A890197F1F79A8B5E
:10200000898B8B899C8901979C8B8B8B8B899C8975
:10201000009769F714C06D897E898F89988D0E9419
:102020004100DC01CB019C8B8B8B8B899C89988B2D
:102030008F878F8598890197F1F7988B8F8782E03A
:1020400060E040E00E9447068AE690E060E040E001
:102050000E94A00980E090E0A8ECB2E48B879C8706
:10206000AD87BE876B857C858D859E8520E030E0C1
:102070004AEF54E40E941702DC01CB018F8398875A
:10208000A987BA876F81788589859A8520E030E0B5
:1020900040E85FE30E941D0488232CF481E090E077
:1020A0009E838D833FC06F81788589859A8520E0E6
:1020B0003FEF4FE757E40E94BD0318164CF56B85C0
:1020C0007C858D859E8520E030E040E251E40E94D1
:1020D0001702DC01CB01BC01CD010E944100DC01F3
:1020E000CB019E838D830FC088EC90E09C838B8313
:1020F0008B819C810197F1F79C838B838D819E81DD
:1021000001979E838D838D819E81009769F71ACFF9
:102110006F81788589859A850E944100DC01CB0119
:102120009E838D838D819E819A83898389819A8103
:102130000197F1F79A83898305CFA1E21A2EAA1B92
:10214000BB1BFD010DC0AA1FBB1FEE1FFF1FA21767
:10215000B307E407F50720F0A21BB30BE40BF50B64
:10216000661F771F881F991F1A9469F760957095ED
:10217000809590959B01AC01BD01CF0108952F92F0
:102180003F924F925F926F927F928F929F92AF9207
:10219000BF92CF92DF92EF92FF920F931F93CF9354
:1021A000DF93CDB7DEB7CA1BDB0B0FB6F894DEBFEB
:1021B0000FBECDBF09942A88398848885F846E8411
:1021C0007D848C849B84AA84B984C884DF80EE805B
:1021D000FD800C811B81AA81B981CE0FD11D0FB664
:1021E000F894DEBF0FBECDBFED010895F894FFCF88
:1021F000636C6F636B7769736500616E74692063EC
:102200006C6F636B7769736500000000000000006D
:022210000000CC
:00000001FF
