:100000000C942A000C9447000C9447000C94470071
:100010000C9447000C9447000C9447000C94470044
:100020000C9447000C9447000C9447000C94470034
:100030000C9447000C9447000C9447000C94470024
:100040000C9447000C9447000C9447000C94470014
:100050000C94470011241FBECFE5D8E0DEBFCDBF12
:1000600010E0A0E6B0E0E2E1F3E202C005900D92FC
:10007000AE37B107D9F710E0AEE7B0E001C01D928E
:10008000AF37B107E1F70E94E4100C9487110C948C
:100090000000EF92FF920F931F937B018C0120E0F1
:1000A00030E040E05FE40E94F50388238CF0C80153
:1000B000B70120E030E040E05FE40E94C1010E940F
:1000C00055049B01AC01205030404040504806C0D0
:1000D000C801B7010E9455049B01AC01B901CA01D6
:1000E0001F910F91FF90EF900895A0E0B0E0EBE733
:1000F000F0E00C945011DC012B01FA019C9192303C
:1001000008F439C1EB018881823008F433C194309E
:1001100069F4843009F02FC111969C91119789815F
:10012000981709F428C1AEE6B0E025C1843009F47F
:1001300021C18230A9F4923009F01DC19A01AD01AC
:1001400088E0EA010990AE01E90109929E0181501F
:10015000C1F7E201898111969C918923818308C1AD
:10016000923009F407C112962D903C901397EB0141
:100170008A819B811496AD90BD90CD90DC901797AD
:10018000EC80FD800E811F819101281B390BB90184
:1001900037FF04C066277727621B730B6032710537
:1001A0000CF061C0121613066CF537014801062EDB
:1001B00004C096948794779467940A94D2F721E0C8
:1001C00030E040E050E004C0220F331F441F551FB1
:1001D0006A95D2F721503040404050402E213F21B7
:1001E00040235123211531054105510521F021E01E
:1001F00030E040E050E079018A01E628F72808293C
:1002000019293CC0232BD1F1260E371E350146019A
:10021000062E04C096948794779467940A94D2F734
:1002200021E030E040E050E004C0220F331F441FC3
:10023000551F6A95D2F721503040404050402A2146
:100240003B214C215D21211531054105510521F04E
:1002500021E030E040E050E059016A01A628B728CB
:10026000C828D9280BC0821593052CF01C01AA249C
:10027000BB24650103C0EE24FF24870111969C91E5
:10028000D20111968C91981709F445C0992339F041
:10029000A80197012A193B094C095D0906C0A6016E
:1002A00095012E193F09400B510B57FD08C01182D3
:1002B0003382228224833583468357831DC081E0A5
:1002C00081833382228288279927DC01821B930B4A
:1002D000A40BB50B84839583A683B7830DC0220F2F
:1002E000331F441F551F24833583468357838281E0
:1002F000938101979383828324813581468157813D
:10030000DA01C9010197A109B1098F5F9F4FAF4F72
:10031000BF4328F30BC0918333822282EA0CFB1C7B
:100320000C1D1D1DE482F5820683178383E0808304
:10033000248135814681578157FF1AC0C901AA27F8
:1003400097FDA095BA2F81709070A070B0705695EF
:10035000479537952795822B932BA42BB52B848318
:100360009583A683B7838281938101969383828349
:10037000DF0101C0D201CD01CDB7DEB7E2E10C94BF
:100380006C11A0E2B0E0E7ECF1E00C945C11698341
:100390007A838B839C832D833E834F835887E9E048
:1003A000EE2EF12CEC0EFD1ECE010196B7010E943F
:1003B0007E058E010F5E1F4FCE010596B8010E948B
:1003C0007E058A8991E089278A8BC701B801AE0131
:1003D000475E5F4F0E9475000E94A904A096E6E068
:1003E0000C947811A0E2B0E0E8EFF1E00C945C111D
:1003F00069837A838B839C832D833E834F835887C5
:10040000F9E0EF2EF12CEC0EFD1ECE010196B701A6
:100410000E947E058E010F5E1F4FCE010596B8012A
:100420000E947E05C701B801AE01475E5F4F0E9482
:1004300075000E94A904A096E6E00C947811A0E251
:10044000B0E0E5E2F2E00C94501169837A838B838B
:100450009C832D833E834F835887CE010196BE0136
:10046000675F7F4F0E947E05CE010596BE016F5EDD
:100470007F4F0E947E059985923088F0898982306D
:10048000C8F0943019F4823051F404C0843029F457
:10049000923081F48EE690E0C6C0923049F420E0BC
:1004A0009A858A89981321E02A87CE010996BBC0D4
:1004B000823049F420E09A858A89981321E02A8BBA
:1004C000CE014196B0C02D843E844F8458886D88FB
:1004D0007E888F88988CEE24FF248701AA24BB2471
:1004E000650140E050E060E070E0E0E0F0E0C10174
:1004F00081709070892BE9F0E60CF71C081D191D1E
:100500009A01AB012A0D3B1D4C1D5D1D80E090E062
:10051000A0E0B0E0E614F7040805190520F481E036
:1005200090E0A0E0B0E0BA01A901480F591F6A1F8E
:100530007B1FAA0CBB1CCC1CDD1C97FE08C081E0F5
:1005400090E0A0E0B0E0A82AB92ACA2ADB2A3196B6
:10055000E032F10549F0660C771C881C991C569412
:10056000479437942794C3CFFA85EA892B893C892D
:100570008B859C85280F391F2E5F3F4F17C0CA01FE
:1005800081709070892B61F016950795F794E79428
:1005900080E090E0A0E0B0E8E82AF92A0A2B1B2BC3
:1005A00076956795579547952F5F3F4F77FDE7CF36
:1005B0000CC0440F551F661F771F17FD4160EE0CDE
:1005C000FF1C001F111F21503040403090E05907A0
:1005D00090E0690790E4790760F32B8F3C8FDB0193
:1005E000CA018F779070A070B07080349105A1051A
:1005F000B10561F447FD0AC0E114F10401051105DC
:1006000029F0405C5F4F6F4F7F4F40781A8EFE1786
:1006100011F081E08A8F4D8F5E8F6F8F78A383E01A
:10062000898FCE0149960E94A904A096E2E10C941C
:100630006C11A8E1B0E0EFE1F3E00C94581169838C
:100640007A838B839C832D833E834F835887B9E0C5
:10065000EB2EF12CEC0EFD1ECE010196B7010E948F
:100660007E058E010F5E1F4FCE010596B8010E94D8
:100670007E052985223008F47EC03989323010F495
:10068000B8017CC08A859A8989278A87243011F02D
:10069000223031F4231709F06EC06EE670E06EC0B0
:1006A000343039F41D861E861F86188A1C861B86E8
:1006B00004C0323021F484E08987B7015FC02B8504
:1006C0003C858B899C89281B390B3C872B87ED84C3
:1006D000FE840F851889AD88BE88CF88D88CEA142F
:1006E000FB040C051D0540F4EE0CFF1C001F111F40
:1006F000215030403C872B8720E030E040E050E044
:1007000080E090E0A0E0B0E460E070E0EA14FB0478
:100710000C051D0540F0282B392B4A2B5B2BEA18C2
:10072000FB080C091D09B695A79597958795EE0CC2
:10073000FF1C001F111F6F5F7F4F6F31710531F775
:10074000DA01C9018F779070A070B0708034910584
:10075000A105B10561F427FD0AC0E114F10401050A
:10076000110529F0205C3F4F4F4F5F4F20782D87B8
:100770003E874F87588BBE01675F7F4FCB010E943A
:10078000A9046896EAE00C947411A8E1B0E0EBECDF
:10079000F3E00C945C1169837A838B839C832D83B3
:1007A0003E834F83588789E0E82EF12CEC0EFD1E26
:1007B000CE010196B7010E947E058E010F5E1F4F8C
:1007C000CE010596B8010E947E058985823040F0F1
:1007D0008989823028F0C701B8010E94F60501C05E
:1007E0008FEF6896E6E00C947811A8E1B0E0EBEFAB
:1007F000F3E00C945C1169837A838B839C832D8353
:100800003E834F83588789E0E82EF12CEC0EFD1EC5
:10081000CE010196B7010E947E058E010F5E1F4F2B
:10082000CE010596B8010E947E058985823040F090
:100830008989823028F0C701B8010E94F60501C0FD
:100840008FEF6896E6E00C947811A8E1B0E0EBE257
:10085000F4E00C945C1169837A838B839C832D83F1
:100860003E834F83588789E0E82EF12CEC0EFD1E65
:10087000CE010196B7010E947E058E010F5E1F4FCB
:10088000CE010596B8010E947E058985823040F030
:100890008989823028F0C701B8010E94F60501C09D
:1008A00081E06896E6E00C947811ACE0B0E0EBE50E
:1008B000F4E00C94601169837A838B839C83CE016E
:1008C0000196BE016B5F7F4F0E947E058D81823055
:1008D00061F1823050F1843021F48E81882351F10E
:1008E0002EC02F81388537FD20C06E812F31310514
:1008F0001CF06623F9F023C08EE190E0821B930B7D
:1009000029853A854B855C8504C056954795379572
:1009100027958A95D2F76623B1F05095409530958A
:1009200021953F4F4F4F5F4F0EC020E030E040E039
:1009300050E009C02FEF3FEF4FEF5FE704C020E02A
:1009400030E040E050E8B901CA012C96E2E00C9496
:100950007C11DF92EF92FF920F931F93FC01E480D2
:10096000F58006811781D1808081823048F480E053
:1009700090E0A0E1B0E0E82AF92A0A2B1B2BA5C0E1
:10098000843009F49FC0823021F4EE24FF248701D3
:1009900005C0E114F1040105110519F4E0E0F0E0EF
:1009A00096C0628173819FEF623879070CF05BC05B
:1009B00022E83FEF261B370B2A3131052CF020E0CF
:1009C00030E040E050E02AC0B801A701022E04C088
:1009D00076956795579547950A94D2F781E090E010
:1009E000A0E0B0E004C0880F991FAA1FBB1F2A9582
:1009F000D2F70197A109B1098E219F21A023B1232C
:100A00000097A105B10521F081E090E0A0E0B0E001
:100A10009A01AB01282B392B4A2B5B2BDA01C90138
:100A20008F779070A070B07080349105A105B105EA
:100A300039F427FF09C0205C3F4F4F4F5F4F04C080
:100A4000215C3F4F4F4F5F4FE0E0F0E02030A0E0EF
:100A50003A07A0E04A07A0E45A0710F0E1E0F0E00E
:100A600079018A0127C06038710564F5FB01E158FE
:100A7000FF4FD801C7018F779070A070B07080349D
:100A80009105A105B10539F4E7FE0DC080E490E0C1
:100A9000A0E0B0E004C08FE390E0A0E0B0E0E80E9A
:100AA000F91E0A1F1B1F17FF05C016950795F7941F
:100AB000E794319687E016950795F794E7948A9521
:100AC000D1F705C0EE24FF248701EFEFF0E06E2F91
:100AD000679566276795902F9F77D794DD24D794E5
:100AE0008E2F8695492F462B582F5D29B701CA01B5
:100AF0001F910F91FF90EF90DF900895FC01DB01B3
:100B0000408151812281622F6F7770E0221F22275E
:100B1000221F9381892F880F822B282F30E0991F65
:100B20009927991F11969C93119721153105A9F5C5
:100B3000411551056105710511F482E037C082E865
:100B40009FEF13969C938E9312979A01AB0167E0E7
:100B5000220F331F441F551F6A95D1F783E08C93F2
:100B60000DC0220F331F441F551F12968D919C916B
:100B70001397019713969C938E931297203080E0E1
:100B8000380780E0480780E4580758F314962D93FF
:100B90003D934D935C93179708952F3F310579F45A
:100BA000411551056105710519F484E08C93089590
:100BB00064FF03C081E08C9312C01C9210C02F57B9
:100BC000304013963C932E93129783E08C9387E0EA
:100BD000440F551F661F771F8A95D1F770641496CE
:100BE0004D935D936D937C93179708951F93DC014C
:100BF000FB019C91923008F447C08081823008F458
:100C000043C0943051F411961C91843099F5818140
:100C1000682F70E0611B71093FC0843021F0923071
:100C200031F48230B9F18181882389F12DC0119688
:100C30001C9111978230F1F081811817D9F4129626
:100C40002D913C911397828193818217930794F0A1
:100C500028173907BCF014968D919D910D90BC9189
:100C6000A02D2481358146815781281739074A07ED
:100C70005B0718F4112341F00AC082179307A407F9
:100C8000B50740F4112319F061E070E005C06FEF83
:100C90007FEF02C060E070E0CB011F910895DF9309
:100CA000CF9300D000D000D0CDB7DEB789836A8360
:100CB0004B838A81883008F0DEC08B81882321F045
:100CC0008B81813009F0D4C08981282F30E03E83A8
:100CD0002D838D819E818130910509F443C02D8142
:100CE0003E81223031052CF48D819E81009771F078
:100CF000BCC02D813E812230310509F45FC08D8159
:100D00009E818330910509F485C0AFC08B8181300D
:100D1000A1F4ABE3B0E0EBE3F0E08081482F8A81FF
:100D2000282F30E081E090E0022E02C0880F991F4A
:100D30000A94E2F7842B8C9398C0ABE3B0E0EBE32A
:100D4000F0E08081482F8A81282F30E081E090E018
:100D5000022E02C0880F991F0A94E2F7809584231F
:100D60008C9383C08B818130A1F4A8E3B0E0E8E3E9
:100D7000F0E08081482F8A81282F30E081E090E0E8
:100D8000022E02C0880F991F0A94E2F7842B8C93DD
:100D90006CC0A8E3B0E0E8E3F0E08081482F8A81EE
:100DA000282F30E081E090E0022E02C0880F991FCA
:100DB0000A94E2F7809584238C9357C08B8181300D
:100DC000A1F4A5E3B0E0E5E3F0E08081482F8A815B
:100DD000282F30E081E090E0022E02C0880F991F9A
:100DE0000A94E2F7842B8C9340C0A5E3B0E0E5E3DE
:100DF000F0E08081482F8A81282F30E081E090E068
:100E0000022E02C0880F991F0A94E2F7809584236E
:100E10008C932BC08B818130A1F4A2E3B0E0E2E39C
:100E2000F0E08081482F8A81282F30E081E090E037
:100E3000022E02C0880F991F0A94E2F7842B8C932C
:100E400014C0A2E3B0E0E2E3F0E08081482F8A81A1
:100E5000282F30E081E090E0022E02C0880F991F19
:100E60000A94E2F7809584238C9391E09C8305C0DB
:100E70002FEF2C8302C03FEF3C838C8126960FB668
:100E8000F894DEBF0FBECDBFCF91DF910895DF9301
:100E9000CF9300D000D000D0CDB7DEB78A836B836C
:100EA0008A81843008F06EC08B81883008F06AC077
:100EB0008A81282F30E03E832D834D815E81413031
:100EC000510541F18D819E818230910534F42D814F
:100ED0003E812115310561F052C04D815E81423065
:100EE000510551F18D819E8183309105B9F147C043
:100EF000E9E3F0E08081282F30E08B81882F90E0BB
:100F0000A90102C0559547958A95E2F7CA018170FB
:100F1000898335C0E6E3F0E08081282F30E08B81C3
:100F2000882F90E0A90102C0559547958A95E2F770
:100F3000CA018170898323C0E3E3F0E08081282F18
:100F400030E08B81882F90E0A90102C0559547952C
:100F50008A95E2F7CA018170898311C0E0E3F0E06D
:100F60008081282F30E08B81882F90E0A90102C07A
:100F7000559547958A95E2F7CA0181708983598111
:100F80005C8302C08FEF8C838C8126960FB6F89419
:100F9000DEBF0FBECDBFCF91DF910895DF93CF931A
:100FA00000D000D00F92CDB7DEB789836A834B8320
:100FB0008981843008F0D5C08A81883008F0D1C09A
:100FC0008981282F30E03D832C838C819D81813065
:100FD000910509F443C02C813D81223031052CF468
:100FE0008C819D81009771F0BCC02C813D812230A5
:100FF000310509F45FC08C819D818330910509F42E
:1010000085C0AFC08B818130A1F4AAE3B0E0EAE3F0
:10101000F0E08081482F8A81282F30E081E090E045
:10102000022E02C0880F991F0A94E2F7842B8C933A
:1010300098C0AAE3B0E0EAE3F0E08081482F8A811B
:10104000282F30E081E090E0022E02C0880F991F27
:101050000A94E2F7809584238C9383C08B8181303E
:10106000A1F4A7E3B0E0E7E3F0E08081482F8A81B4
:10107000282F30E081E090E0022E02C0880F991FF7
:101080000A94E2F7842B8C936CC0A7E3B0E0E7E30B
:10109000F0E08081482F8A81282F30E081E090E0C5
:1010A000022E02C0880F991F0A94E2F780958423CC
:1010B0008C9357C08B818130A1F4A4E3B0E0E4E3CA
:1010C000F0E08081482F8A81282F30E081E090E095
:1010D000022E02C0880F991F0A94E2F7842B8C938A
:1010E00040C0A4E3B0E0E4E3F0E08081482F8A81CF
:1010F000282F30E081E090E0022E02C0880F991F77
:101100000A94E2F7809584238C932BC08B818130E5
:10111000A1F4A1E3B0E0E1E3F0E08081482F8A810F
:10112000282F30E081E090E0022E02C0880F991F46
:101130000A94E2F7842B8C9314C0A1E3B0E0E1E3BE
:10114000F0E08081482F8A81282F30E081E090E014
:10115000022E02C0880F991F0A94E2F7809584231B
:101160008C930F900F900F900F900F90CF91DF9175
:101170000895DF93CF9300D000D0CDB7DEB7898339
:101180006A838981282F30E03C832B838B819C816B
:1011900081309105D1F02B813C81223031052CF436
:1011A0008B819C81009761F01EC02B813C81223095
:1011B000310581F08B819C818330910581F013C0D2
:1011C000EAE3F0E08A8180830EC0E7E3F0E08A8101
:1011D000808309C0E4E3F0E08A81808304C0E1E316
:1011E000F0E08A8180830F900F900F900F90CF9145
:1011F000DF910895DF93CF9300D000D0CDB7DEB755
:1012000089836A838981282F30E03C832B838B81FB
:101210009C8181309105D1F02B813C8122303105B8
:101220002CF48B819C81009761F01EC02B813C8146
:101230002230310581F08B819C818330910581F0D2
:1012400013C0EBE3F0E08A8180830EC0E8E3F0E0B6
:101250008A81808309C0E5E3F0E08A81808304C04D
:10126000E2E3F0E08A8180830F900F900F900F905F
:10127000CF91DF910895DF93CF9300D000D00F92EC
:10128000CDB7DEB78A838A81282F30E03D832C8357
:101290008C819D8181309105D1F02C813D8122305E
:1012A00031052CF48C819D81009761F01FC02C8149
:1012B0003D812230310581F08C819D818330910503
:1012C00081F014C0E9E3F0E08081898312C0E6E395
:1012D000F0E0808189830DC0E3E3F0E080818983C1
:1012E00008C0E0E3F0E08081898303C09FEF9B8327
:1012F00002C029812B838B810F900F900F900F904C
:101300000F90CF91DF910895DF93CF93CDB7DEB7E4
:101310000E948D09CF91DF910895DF93CF9300D084
:10132000CDB7DEB71A821BC08A81882F90E0FC01FE
:10133000EA58FF4F908180E0692F41E00E94CE077C
:101340008A81882F90E0FC01EA58FF4F908180E06D
:10135000692F41E00E944F068A818F5F8A838A81CC
:10136000833010F319821BC08981882F90E0FC0123
:10137000E758FF4F908181E0692F40E00E94CE073F
:101380008981882F90E0FC01E758FF4F908181E030
:10139000692F41E00E944F0689818F5F898389818F
:1013A000843010F30F900F90CF91DF910895DF9369
:1013B000CF9300D0CDB7DEB71A821BC08A81882FA9
:1013C00090E0FC01E758FF4F908181E0692F41E0F8
:1013D0000E94CE078A81882F90E0FC01E758FF4FDA
:1013E000908181E0692F41E00E944F068A818F5FE2
:1013F0008A838A81843010F319821BC08981882FE7
:1014000090E0FC01EA58FF4F908180E0692F40E0B6
:101410000E94CE078981882F90E0FC01EA58FF4F97
:10142000908180E0692F41E00E944F0689818F5FA3
:1014300089838981833010F30F900F90CF91DF91D2
:1014400008950F931F93DF93CF9300D000D00F9296
:10145000CDB7DEB79D838C831B821A8244C08A81FC
:10146000882F90E0FC01EA58FF4F908180E0692FBF
:1014700040E00E944F06198224C08981282F30E065
:10148000C901880F991F820F931F982F8A81890F96
:101490008B838B81282F30E08C819D818C01020F02
:1014A000131F8981882F90E0FC01E758FF4F90813E
:1014B00081E0692F0E944707F801808389818F5F4F
:1014C000898389818430C8F28A81882F90E0FC0169
:1014D000EA58FF4F908180E0692F41E00E944F065B
:1014E0008A818F5F8A838A81833008F4B8CF0F9016
:1014F0000F900F900F900F90CF91DF911F910F9150
:101500000895DF93CF93CDB7DEB765970FB6F89404
:10151000DEBF0FBECDBF9D8B8C8B1B8A08C08B8915
:101520008F5F8B8B8C899D8901969D8B8C8BEC8931
:10153000FD898081882399F78B89882F90E0222765
:101540003327281B390B8C899D89820F931F9D8B14
:101550008C8B1A8A81E0898B0E949C0D8A89882352
:1015600014F18A898031FCF4188A19C09A89888913
:10157000890F8F878F8588237CF08F85803164F475
:101580008889282F30E08C899D89820F931F2F85B1
:10159000622F40E00E94180C88898F5F888B9889A1
:1015A0008B89981718F380E090E0AAE7B3E48B8763
:1015B0009C87AD87BE876B857C858D859E8520E069
:1015C00030E04AEF54E40E941F02DC01CB018F831C
:1015D0009887A987BA876F81788589859A8520E061
:1015E00030E040E85FE30E94250488232CF481E08A
:1015F00090E09E838D833FC06F81788589859A8531
:1016000020E03FEF4FE757E40E94C50318164CF562
:101610006B857C858D859E8520E030E040E251E43D
:101620000E941F02DC01CB01BC01CD010E944900D8
:10163000DC01CB019E838D830FC088EC90E09C83FE
:101640008B838B819C810197F1F79C838B838D81A8
:101650009E8101979E838D838D819E81009769F77E
:1016600014C06F81788589859A850E944900DC01C4
:10167000CB019E838D838D819E819A83898389810D
:101680009A810197F1F79A8389839A898989890FC9
:101690008A8B8A89482F552747FD50958B89282F9B
:1016A00030E081E190E0821B930B481759074CF022
:1016B0008FEF898B9FE08B89292F281B822F8A8BA4
:1016C0004BCF8A8988230CF047CF81E0898B1A8A17
:1016D00043CFDF93CF9300D000D000D0CDB7DEB79B
:1016E0009D838C836E831B828E8181508A832CC064
:1016F0008B81282F30E08C819D81FC01E20FF31F4C
:10170000808189838B81282F30E08C819D81DC0151
:10171000A20FB31F8A81282F30E08C819D81FC01AC
:10172000E20FF31F80818C938A81282F30E08C8117
:101730009D81FC01E20FF31F898180838B818F5F84
:101740008B838A8181508A839B818A81981780F25A
:1017500026960FB6F894DEBF0FBECDBFCF91DF91B6
:101760000895DF93CF93CDB7DEB76C970FB6F8949B
:10177000DEBF0FBECDBF6F8B788F898F9A8F4B8F57
:101780002C8F198230C08F89988DA98DBA8D2AE04F
:1017900030E040E050E0BC01CD010E941A11DC01B4
:1017A000CB018A838981282F30E08A81482F405DD0
:1017B000CE010396FC01E20FF31F408389818F5F06
:1017C00089838F89988DA98DBA8D2AE030E040E019
:1017D00050E0BC01CD010E941A11DA01C9018F8BC2
:1017E000988FA98FBA8F8F89988DA98DBA8D009700
:1017F000A105B10541F68981282F30E0CE0103967D
:10180000FC01E20FF31F1082CE01039669810E9452
:10181000690BCE0103966B8D4C8D0E94180C6C9653
:101820000FB6F894DEBF0FBECDBFCF91DF91089504
:10183000DF93CF93CDB7DEB727970FB6F894DEBF0F
:101840000FBECDBF9D838C836E834F838E8181318C
:10185000C8F48F818230B0F48F81882F90E000240B
:10186000969587950794969587950794982F802D40
:10187000982F8E81890F8A838A8180688A838A81E2
:101880000E948A0D1B823FC08E81282F30E08B8101
:10189000882F90E0820F931F803191053CF11E82CA
:1018A0008F81882F90E0019622E030E0B9010E94FC
:1018B00007118F838E818131C8F48F818230B0F41B
:1018C0008F81882F90E000249695879507949695B0
:1018D00087950794982F802D982F8E81890F898363
:1018E00089818068898389810E948A0DEC81FD81CC
:1018F00080810E94780D8C819D8101969D838C83CF
:101900008B818F5F8B83EC81FD818081882309F03F
:10191000BBCF27960FB6F894DEBF0FBECDBFCF91D9
:10192000DF910895DF93CF93CDB7DEB72F970FB632
:10193000F894DEBF0FBECDBF8F8782E061E040E04C
:101940000E944F068F85982F917083E060E0492FA9
:101950000E944F068F858695982F917083E061E0F5
:10196000492F0E944F068F8586958695982F9170F6
:1019700083E062E0492F0E944F068F858695869509
:101980008695982F917083E063E0492F0E944F065F
:101990008F8582958F70982F917083E064E0492F36
:1019A0000E944F068F85829586958770982F91703B
:1019B00083E065E0492F0E944F068F8582958695CA
:1019C00086958370982F917083E066E0492F0E947E
:1019D0004F068F85982F991F9927991F83E067E0FD
:1019E000492F0E944F0682E062E041E00E944F06CC
:1019F00080E090E0A0E8BFE38B879C87AD87BE873F
:101A00006B857C858D859E8520E030E04AEF54E42F
:101A10000E941F02DC01CB018F839887A987BA87B8
:101A20006F81788589859A8520E030E040E85FE322
:101A30000E94250488232CF481E090E09E838D830E
:101A40003FC06F81788589859A8520E03FEF4FE719
:101A500057E40E94C50318164CF56B857C858D856F
:101A60009E8520E030E040E251E40E941F02DC014C
:101A7000CB01BC01CD010E944900DC01CB019E835A
:101A80008D830FC088EC90E09C838B838B819C813D
:101A90000197F1F79C838B838D819E8101979E83B3
:101AA0008D838D819E81009769F714C06F81788541
:101AB00089859A850E944900DC01CB019E838D8334
:101AC0008D819E819A83898389819A810197F1F71B
:101AD0009A83898382E062E040E00E944F062F965D
:101AE0000FB6F894DEBF0FBECDBFCF91DF91089542
:101AF000DF93CF930F92CDB7DEB7898382E060E0AA
:101B000041E00E944F0689810E94920C0F90CF9174
:101B1000DF910895DF93CF930F92CDB7DEB789831E
:101B200082E060E040E00E944F0689810E94920CB2
:101B30000F90CF91DF910895DF93CF93CDB7DEB7AC
:101B400081E00E948A0DCF91DF9108950F931F933A
:101B5000DF93CF93CDB7DEB7CC54D0400FB6F89417
:101B6000DEBF0FBECDBF83E06FEF0E94B90882E0F9
:101B700060E041E00E94CE0782E061E041E00E9427
:101B8000CE0782E062E041E00E94CE07FE01E75B03
:101B9000FF4F80E090E0A0E2B2E480839183A283D3
:101BA000B3838E010B5B1F4FFE01E75BFF4F60812C
:101BB00071818281938120E030E04AEF54E40E94F9
:101BC0001F02DC01CB01F80180839183A283B383E0
:101BD000FE01EB5BFF4F608171818281938120E088
:101BE00030E040E85FE30E942504882344F4FE01CE
:101BF000ED5BFF4F81E090E09183808364C0FE0144
:101C0000EB5BFF4F608171818281938120E03FEF28
:101C10004FE757E40E94C50318160CF043C0FE01BD
:101C2000E75BFF4F608171818281938120E030E02A
:101C300040E251E40E941F02DC01CB018E010D5BEA
:101C40001F4FBC01CD010E944900DC01CB01F8010E
:101C5000918380831FC0FE01EF5BFF4F88EC90E013
:101C600091838083FE01EF5BFF4F8081918101971B
:101C7000F1F7FE01EF5BFF4F91838083DE01AD5BE7
:101C8000BF4FFE01ED5BFF4F80819181019711965F
:101C90009C938E93FE01ED5BFF4F808191810097B5
:101CA000D1F624C08E010D5B1F4FFE01EB5BFF4F91
:101CB00060817181828193810E944900DC01CB01A6
:101CC000F80191838083FE01ED5BFF4F808191815C
:101CD000FE01FF9691838083FE01FF9680819181B2
:101CE0000197F1F7FE01FF969183808388E30E94BC
:101CF0008A0D80E090E0A8E4B2E48BAF9CAFADAF7A
:101D0000BEAF6BAD7CAD8DAD9EAD2BEA3AEA4AE23B
:101D100050E40E941F02DC01CB018FAB98AFA9AF4A
:101D2000BAAF6FA978AD89AD9AAD20E030E040E858
:101D30005FE30E94250488231CF481E08EAB91C0F0
:101D40006FA978AD89AD9AAD20E030E04FE753E45C
:101D50000E94C50318160CF07BC06BAD7CAD8DAD39
:101D60009EAD20E030E04AE754E40E941903DC0114
:101D7000CB018AAB9BABACABBDAB6AA97BA98CA9F1
:101D80009DA920E030E04AEF54E40E941F02DC01EC
:101D9000CB018EA79FA7A8ABB9AB6EA57FA588A9DD
:101DA00099A920E030E040E85FE30E942504882301
:101DB0002CF481E090E09DA78CA73FC06EA57FA585
:101DC00088A999A920E03FEF4FE757E40E94C50397
:101DD00018164CF56AA97BA98CA99DA920E030E0D2
:101DE00040E251E40E941F02DC01CB01BC01CD01A5
:101DF0000E944900DC01CB019DA78CA70FC088EC95
:101E000090E09BA78AA78AA59BA50197F1F79BA7BE
:101E10008AA78CA59DA501979DA78CA78CA59DA59C
:101E2000009769F724C06EA57FA588A999A90E948B
:101E30004900DC01CB019DA78CA78CA59DA599A786
:101E400088A788A599A50197F1F799A788A70FC03A
:101E50006FA978AD89AD9AAD0E944900DC01CB0134
:101E60008EAB8EA98FA38FA18A95F1F78FA38CE0FB
:101E70000E948A0D80E090E0A8E4B2E48BA39CA3CA
:101E8000ADA3BEA36BA17CA18DA19EA12BEA3AEAD2
:101E90004AE250E40E941F02DC01CB018F8F98A31D
:101EA000A9A3BAA36F8D78A189A19AA120E030E0FF
:101EB00040E85FE30E94250488231CF481E08E8FB4
:101EC00091C06F8D78A189A19AA120E030E04FE701
:101ED00053E40E94C50318160CF07BC06BA17CA1D3
:101EE0008DA19EA120E030E04AE754E40E9419034E
:101EF000DC01CB018A8F9B8FAC8FBD8F6A8D7B8D70
:101F00008C8D9D8D20E030E04AEF54E40E941F024A
:101F1000DC01CB018E8B9F8BA88FB98F6E897F8957
:101F2000888D998D20E030E040E85FE30E94250431
:101F300088232CF481E090E09D8B8C8B3FC06E89D0
:101F40007F89888D998D20E03FEF4FE757E40E940D
:101F5000C50318164CF56A8D7B8D8C8D9D8D20E008
:101F600030E040E251E40E941F02DC01CB01BC01E1
:101F7000CD010E944900DC01CB019D8B8C8B0FC0F1
:101F800088EC90E09B8B8A8B8A899B890197F1F77B
:101F90009B8B8A8B8C899D8901979D8B8C8B8C89DF
:101FA0009D89009769F724C06E897F89888D998DF6
:101FB0000E944900DC01CB019D8B8C8B8C899D8913
:101FC000998B888B888999890197F1F7998B888BF0
:101FD0000FC06F8D78A189A19AA10E944900DC01F0
:101FE000CB018E8F8E8D8F878F858A95F1F78F87A6
:101FF00081E00E948A0D80E090E0A0E0B0E48B8751
:102000009C87AD87BE876B857C858D859E8520E00E
:1020100030E04AEF54E40E941F02DC01CB018F83C1
:102020009887A987BA876F81788589859A8520E006
:1020300030E040E85FE30E94250488232CF481E02F
:1020400090E09E838D833FC06F81788589859A85D6
:1020500020E03FEF4FE757E40E94C50318164CF508
:102060006B857C858D859E8520E030E040E251E4E3
:102070000E941F02DC01CB01BC01CD010E9449007E
:10208000DC01CB019E838D830FC088EC90E09C83A4
:102090008B838B819C810197F1F79C838B838D814E
:1020A0009E8101979E838D838D819E81009769F724
:1020B00014C06F81788589859A850E944900DC016A
:1020C000CB019E838D838D819E819A8389838981B3
:1020D0009A810197F1F79A83898386E00E948A0D9D
:1020E000C45BDF4F0FB6F894DEBF0FBECDBFCF91FC
:1020F000DF911F910F910895DF93CF93CDB7DEB796
:1021000028970FB6F894DEBF0FBECDBF98878F8398
:102110001E821B821A82198216C08981282F30E004
:102120008F819885FC01E20FF31F8081882341F4A1
:1021300089818E8381E08B8389818F5F8A8306C04A
:1021400089818F5F898389818C3038F38B818130DD
:1021500031F58E81869586958D838E8193E0692FEA
:102160000E94FB10892F8C8380917E00882329F4A4
:102170000E949C0D81E080937E0080E690E060E00C
:1021800040E00E94180C8A81882F90E0A0E0B0E027
:10219000BC01CD0145E020E00E94B10B0CC0809154
:1021A0007E00813011F410927E0084E690E060E0C1
:1021B00040E00E94180C28960FB6F894DEBF0FBEC0
:1021C000CDBFCF91DF910895DF93CF93CDB7DEB729
:1021D0002C970FB6F894DEBF0FBECDBF0E94A60DA0
:1021E0000E948409CE0101960E94210ACE01019627
:1021F0000E947C10F7CF991B79E004C0991F9617B5
:1022000008F0961B881F7A95C9F78095089597FB6B
:10221000092E07260AD077FD04D02ED006D0002044
:102220001AF4709561957F4F0895F6F79095819512
:102230009F4F0895A1E21A2EAA1BBB1BFD010DC0E2
:10224000AA1FBB1FEE1FFF1FA217B307E407F50766
:1022500020F0A21BB30BE40BF50B661F771F881F42
:10226000991F1A9469F760957095809590959B01D8
:10227000AC01BD01CF010895AA1BBB1B51E107C0F2
:10228000AA1FBB1FA617B70710F0A61BB70B881F06
:10229000991F5A95A9F780959095BC01CD01089595
:1022A0002F923F924F925F926F927F928F929F9266
:1022B000AF92BF92CF92DF92EF92FF920F931F9354
:1022C000CF93DF93CDB7DEB7CA1BDB0B0FB6F89405
:1022D000DEBF0FBECDBF09942A88398848885F8445
:1022E0006E847D848C849B84AA84B984C884DF80B6
:1022F000EE80FD800C811B81AA81B981CE0FD11D9A
:102300000FB6F894DEBF0FBECDBFED010895F8946F
:02231000FFCFFD
:1023120053772000737769746368206E7000000041
:0E2322000000000000000001020001020300A4
:00000001FF
