:100000000C942A000C9434000C9434000C943400AA
:100010000C9434000C9434000C9434000C94340090
:100020000C9434000C9434000C9434000C94340080
:100030000C9434000C9434000C9434000C94340070
:100040000C9434000C9434000C9434000C94340060
:100050000C94340011241FBECFE5D8E0DEBFCDBF25
:100060000E94F2040C9421050C940000DF93CF93BE
:10007000CDB7DEB7A6E2B0E0E6E2F0E080818068CE
:100080008C93A6E2B0E0E6E2F0E0808181608C93A0
:10009000A6E2B0E0E6E2F0E0808182608C93A6E226
:1000A000B0E0E6E2F0E0808184608C93A7E2B0E00B
:1000B000E7E2F0E080818F778C93A6E2B0E0E6E2A1
:1000C000F0E0808180648C93A7E2B0E0E7E2F0E0AA
:1000D000808180648C93CF91DF910895DF93CF93DB
:1000E00000D00F92CDB7DEB78B83A7E2B0E0E7E296
:1000F000F0E08081807E8C93A7E2B0E0E7E2F0E060
:1001000090818B81892B8C93A6E2B0E0E6E2F0E04F
:10011000808180648C93E6E2F0E0808182958F702C
:10012000882F90E0817090700097A9F3A6E2B0E06C
:10013000E6E2F0E0808180618C93E4E2F0E080818F
:100140008295869586958370882F90E09A8389831F
:10015000E5E2F0E08081882F90E09C01220F331FC0
:10016000220F331F89819A81822B932B9A83898353
:1001700089819A810F900F900F90CF91DF91089510
:10018000DF93CF9300D000D000D0CDB7DEB7898306
:100190006A834B838A81883008F0E1C0898184308A
:1001A00008F0DDC08B81813021F08B81882309F03C
:1001B000D3C08981282F30E03E832D838D819E819D
:1001C0008130910509F443C02D813E8122303105F3
:1001D0002CF48D819E81009771F0BCC02D813E81F1
:1001E0002230310509F45FC08D819E8183309105F5
:1001F00009F485C0AFC08B818130A1F4ABE3B0E0DE
:10020000EBE3F0E08081482F8A81282F30E081E005
:1002100090E0022E02C0880F991F0A94E2F7842B07
:100220008C9398C0ABE3B0E0EBE3F0E08081482F23
:100230008A81282F30E081E090E0022E02C0880FF2
:10024000991F0A94E2F7809584238C9383C08B8155
:100250008130A1F4A8E3B0E0E8E3F0E08081482F2A
:100260008A81282F30E081E090E0022E02C0880FC2
:10027000991F0A94E2F7842B8C936CC0A8E3B0E03A
:10028000E8E3F0E08081482F8A81282F30E081E088
:1002900090E0022E02C0880F991F0A94E2F7809521
:1002A00084238C9357C08B818130A1F4A5E3B0E007
:1002B000E5E3F0E08081482F8A81282F30E081E05B
:1002C00090E0022E02C0880F991F0A94E2F7842B57
:1002D0008C9340C0A5E3B0E0E5E3F0E08081482FD7
:1002E0008A81282F30E081E090E0022E02C0880F42
:1002F000991F0A94E2F7809584238C932BC08B81FD
:100300008130A1F4A2E3B0E0E2E3F0E08081482F85
:100310008A81282F30E081E090E0022E02C0880F11
:10032000991F0A94E2F7842B8C9314C0A2E3B0E0E7
:10033000E2E3F0E08081482F8A81282F30E081E0DD
:1003400090E0022E02C0880F991F0A94E2F7809570
:1003500084238C931C8205C09AEF9C8302C02FEFEC
:100360002C838C8126960FB6F894DEBF0FBECDBFCE
:10037000CF91DF910895DF93CF9300D000D000D0CC
:10038000CDB7DEB78A836B838A81843008F071C071
:100390008B81883008F06AC08A81282F30E03E8344
:1003A0002D834D815E814130510541F18D819E81CA
:1003B0008230910534F42D813E812115310561F0A3
:1003C00052C04D815E814230510551F18D819E8137
:1003D00083309105B9F147C0E9E3F0E08081282F2F
:1003E00030E08B81882F90E0A90102C05595479598
:1003F0008A95E2F7CA018170898335C0E6E3F0E0AF
:100400008081282F30E08B81882F90E0A90102C0E5
:10041000559547958A95E2F7CA018170898323C073
:10042000E3E3F0E08081282F30E08B81882F90E09B
:10043000A90102C0559547958A95E2F7CA018170D6
:10044000898311C0E0E3F0E08081282F30E08B81C8
:10045000882F90E0A90102C0559547958A95E2F74B
:10046000CA018170898359815C8305C08FEF8C83B9
:1004700002C095EF9C838C8126960FB6F894DEBF60
:100480000FBECDBFCF91DF910895DF93CF9300D002
:1004900000D000D0CDB7DEB789836A834B838981D2
:1004A000843008F0DAC08A81883008F0D3C08981AE
:1004B000282F30E03E832D838D819E8181309105F0
:1004C00009F443C02D813E81223031052CF48D8109
:1004D0009E81009771F0BCC02D813E812230310594
:1004E00009F45FC08D819E818330910509F485C038
:1004F000AFC08B818130A1F4AAE3B0E0EAE3F0E081
:100500008081482F8A81282F30E081E090E0022E00
:1005100002C0880F991F0A94E2F7842B8C9398C02D
:10052000AAE3B0E0EAE3F0E08081482F8A81282F37
:1005300030E081E090E0022E02C0880F991F0A94FB
:10054000E2F7809584238C9383C08B818130A1F462
:10055000A7E3B0E0E7E3F0E08081482F8A81282F0D
:1005600030E081E090E0022E02C0880F991F0A94CB
:10057000E2F7842B8C936CC0A7E3B0E0E7E3F0E0F4
:100580008081482F8A81282F30E081E090E0022E80
:1005900002C0880F991F0A94E2F7809584238C93F8
:1005A00057C08B818130A1F4A4E3B0E0E4E3F0E034
:1005B0008081482F8A81282F30E081E090E0022E50
:1005C00002C0880F991F0A94E2F7842B8C9340C0D5
:1005D000A4E3B0E0E4E3F0E08081482F8A81282F93
:1005E00030E081E090E0022E02C0880F991F0A944B
:1005F000E2F7809584238C932BC08B818130A1F40A
:10060000A1E3B0E0E1E3F0E08081482F8A81282F68
:1006100030E081E090E0022E02C0880F991F0A941A
:10062000E2F7842B8C9314C0A1E3B0E0E1E3F0E0A7
:100630008081482F8A81282F30E081E090E0022ECF
:1006400002C0880F991F0A94E2F7809584238C9347
:100650001C8205C09FEF9C8302C025EF2C838C81F8
:1006600026960FB6F894DEBF0FBECDBFCF91DF91B7
:100670000895DF93CF9300D000D00F92CDB7DEB7AF
:1006800089836A8389818430A0F58981282F30E0AD
:100690003D832C838C819D8181309105D1F02C810B
:1006A0003D81223031052CF48C819D81009761F0D1
:1006B0001EC02C813D812230310581F08C819D81CD
:1006C0008330910581F013C0EAE3F0E08A818083F2
:1006D0000EC0E7E3F0E08A81808309C0E4E3F0E044
:1006E0008A81808304C0E1E3F0E08A8180831B82F9
:1006F00002C095EF9B838B810F900F900F900F900E
:100700000F90CF91DF910895DF93CF9300D000D069
:100710000F92CDB7DEB789836A8389818430A0F5D3
:100720008981282F30E03D832C838C819D8181300D
:100730009105D1F02C813D81223031052CF48C8142
:100740009D81009761F01EC02C813D8122303105D2
:1007500081F08C819D818330910581F013C0EBE3A2
:10076000F0E08A8180830EC0E8E3F0E08A81808334
:1007700009C0E5E3F0E08A81808304C0E2E3F0E0B1
:100780008A8180831B8202C095EF9B838B810F90AF
:100790000F900F900F900F90CF91DF910895DF93FE
:1007A000CF9300D000D000D0CDB7DEB78A836B8363
:1007B0008A81843008F06AC08A81282F30E03E8325
:1007C0002D834D815E814130510541F18D819E81A6
:1007D0008230910534F42D813E812115310561F07F
:1007E00052C04D815E814230510551F18D819E8113
:1007F00083309105B9F147C0EAE3F0E08081282F0A
:1008000030E08B81882F90E0A90102C05595479573
:100810008A95E2F7CA018170898335C0E7E3F0E089
:100820008081282F30E08B81882F90E0A90102C0C1
:10083000559547958A95E2F7CA018170898323C04F
:10084000E4E3F0E08081282F30E08B81882F90E076
:10085000A90102C0559547958A95E2F7CA018170B2
:10086000898311C0E1E3F0E08081282F30E08B81A3
:10087000882F90E0A90102C0559547958A95E2F727
:10088000CA018170898359815C8302C085EF8C83A2
:100890008C8126960FB6F894DEBF0FBECDBFCF91E8
:1008A000DF910895DF93CF9300D000D00F92CDB7A2
:1008B000DEB78A838A818430A8F58A81282F30E0C8
:1008C0003D832C838C819D8181309105D1F02C81D9
:1008D0003D81223031052CF48C819D81009761F09F
:1008E0001EC02C813D812230310581F08C819D819B
:1008F0008330910581F013C0EAE3F0E080818983C1
:100900000EC0E7E3F0E08081898309C0E4E3F0E012
:100910008081898304C0E1E3F0E08081898399814B
:100920009B8302C025EF2B838B810F900F900F903C
:100930000F900F90CF91DF910895DF93CF9300D068
:1009400000D000D0CDB7DEB789837B836A838981ED
:100950008430E0F58981282F30E03E832D838D811E
:100960009E8181309105E1F02D813E81223031055B
:100970002CF48D819E81009761F026C02D813E81EF
:1009800022303105A1F08D819E8183309105B1F037
:100990001BC0E9E3F0E08081EA81FB81808314C021
:1009A000E6E3F0E08081EA81FB8180830DC0E3E330
:1009B000F0E08081EA81FB81808306C0E0E3F0E023
:1009C0008081EA81FB8180831C8202C095EF9C8339
:1009D0008C8126960FB6F894DEBF0FBECDBFCF91A7
:1009E000DF9108950F931F93DF93CF93CDB7DEB7B9
:1009F00080E060E040E00E94450283E065E041E085
:100A00000E9445020E943600EFE4F0E082EA808313
:100A1000EEE4F0E08BE190E091838083E6E4F0E0A7
:100A200084EC99E0918380830AE410E080E00E94E6
:100A30006E009695879596958795F80191838083AA
:060A4000F3CFF894FFCF94
:00000001FF
